:100000007438115A118C740C115A118C7401115AD4
:10001000D2A0C2A1D2A3C2A0D2A1118CC2A1118C24
:100020007B08D2A1118CC2A1118CA2A333DBF3D225
:10003000A0F590118C7406115A118C7484115A1108
:100040008C1174ED1167EE1167742E1167EC116756
:10005000742011677463116780B6F5B0C280C281E5
:10006000D282118CC28222F5B0D280C281D282119A
:100070008CC28222E59075F00A8443F030AEF075B0
:10008000F00A8443F030ADF04430FC2279327AFA41
:05009000DAFED9FA229E
:00000001FF
